:020000040800F2
:1000000000000220012A00081D070008250700083B
:100010002D070008350700083D0700080000000014
:10002000000000000000000000000000450700087C
:100030005307000800000000610700086F07000870
:10004000512A0008512A0008512A0008512A0008A4
:10005000512A0008512A0008512A0008512A000894
:10006000512A0008512A0008512A0008512A000884
:10007000512A0008512A0008512A0008512A000874
:10008000512A0008512A0008512A000800000000E7
:10009000000000000000000000000000512A0008DD
:1000A000512A0008512A0008512A0008512A000844
:1000B000512A0008512A00087D070008512A00082B
:1000C000512A0008512A0008512A0008512A000824
:1000D000512A0008512A0008512A00080000000097
:1000E000512A0008512A0008512A00080000000087
:1000F000000000000000000000000000512A00087D
:1001000000000000512A0008512A0008512A000866
:1001100000000000000000000000000000000000DF
:10012000512A0008512A0008512A0008512A0008C3
:10013000512A00080000000000000000000000003C
:10014000000000000000000000000000512A00082C
:10015000512A0008512A0008512A0008512A000893
:10016000512A0008512A0008000000000000000089
:10017000000000000000000000000000000000007F
:1001800000000000512A00080000000000000000EC
:08019000512A0008512A000861
:1001980053B94AB9002908BF00281CBF4FF0FF31E6
:1001A8004FF0FF3000F00CB8ADF1080C6DE904CE4B
:1001B80002F078FCDDF804E0DDE9022304B07047C2
:1001C800704700BF0348044B834202D0034B03B17E
:1001D800184770470C0000200C00002000000000A9
:1001E8000548064B1B1AD90F01EBA301491002D091
:1001F800034B03B1184770470C0000200C00002087
:100208000000000010B5064C237843B9FFF7DAFF69
:10021800044B13B10448AFF300800123237010BDD1
:100228000C00002000000000A42D000808B5054BB4
:100238001BB105490548AFF30080BDE80840FFF74A
:10024800CFBF00BF0000000010000020A42D000850
:1002580080B584B000AF0523FB71FB79DBB2013BAD
:10026800DBB203F01F03DBB2FB7102F01DFB00F0F1
:10027800A3F800F089F900F007F90021474800F0D9
:10028800A3FB0421454800F0CFFC4FF4004144484B
:1002980002F0ACF90346002B08D100BF4FF400412F
:1002A8003F4802F0A3F90346002BF7D001224FF490
:1002B80000513B4802F0B2F9012002F067FB374BCE
:1002C8001B6800225A620021344800F07DFB04219B
:1002D800324800F0A9FC334B00221A600023FB606F
:1002E80000224FF400512E4802F098F902E0FB6812
:1002F8000133FB602B4B1B68002B03D1FB682A4A98
:100308009342F4D9274B1B6840F2571202FB03F3C0
:10031800264AA2FB0323DB09BB600022F8212448FC
:1003280002F07CF9BB68002B08D0BB68642B05D8A9
:10033800012208211E4802F071F925E0BB68C82B8C
:1003480005D8012218211A4802F068F91CE0BB6898
:10035800B3F5967F05D801223821154802F05EF9D9
:1003680012E0BB68B3F5C87F05D801227821104890
:1003780002F054F908E0BB68B3F5FA7F04D801220B
:10038800F8210B4802F04AF94FF40051094802F0ED
:100398005EF9322002F0FAFA77E700BF2800002061
:1003A80000040240700000209F860100D34D6210B7
:1003B800000002400008024080B594B000AF07F189
:1003C800200330220021184602F03FFB07F10C03FE
:1003D80000221A605A609A60DA601A610023BB60D2
:1003E800274B1B6C264A43F080531364244B1B6C29
:1003F80003F08053BB60BB6800237B60214B1B6804
:10040800204A43F4404313601E4B1B6803F44043E7
:100418007B607B6801233B624FF480337B6202235D
:10042800BB634FF48003FB6319233B64C0237B64E5
:100438000223BB640423FB6407F12003184601F080
:100448002FFB0346002B01D000F05EF90F23FB6061
:1004580002233B6100237B614FF48053BB6100237F
:10046800FB6107F10C030321184601F091FD0346D7
:10047800002B01D000F048F900BF5037BD4680BDC1
:10048800003802400070004080B58AB000AF07F124
:10049800180300221A605A609A60DA6007F11003A4
:1004A80000221A605A603B4600221A605A609A601D
:1004B800DA60334B334A1A60314B5F225A60304B53
:1004C80000229A602E4B4FF6FF72DA602C4B002206
:1004D8001A612B4B00229A61294800F0CDF9034696
:1004E800002B01D000F010F94FF48053BB6107F1E5
:1004F80018031946224800F003FF0346002B01D0D9
:1005080000F002F91E4800F006FA0346002B01D05D
:1005180000F0FAF800233B6100237B6107F1100328
:100528001946174801F03AFA0346002B01D000F0AB
:10053800EBF800233B6001237B600023BB600023B2
:10054800FB603B46002219460D4800F03DFE03467D
:10055800002B01D000F0D8F802233B6002237B6017
:100568003B4604221946064800F02EFE0346002B9F
:1005780001D000F0C9F800BF2837BD4680BD00BFD4
:10058800280000200008004080B58AB000AF07F1BD
:10059800140300221A605A609A60DA601A61002314
:1005A8003B61424B1B6B414A43F0040313633F4BCF
:1005B8001B6B03F004033B613B690023FB603B4B6F
:1005C8001B6B3A4A43F080031363384B1B6B03F0F1
:1005D8008003FB60FB680023BB60344B1B6B334A12
:1005E80043F001031363314B1B6B03F00103BB6042
:1005F800BB6800237B602D4B1B6B2C4A43F0020326
:1006080013632A4B1B6B03F002037B607B68002299
:100618004FF40051264802F001F80022F82125483D
:1006280001F0FCFF00224FF40051234801F0F6FFCF
:100638004FF400537B610123BB610023FB6100235E
:100648003B6207F114031946194801F04BFEF823E1
:100658007B610123BB610023FB6100233B6207F13F
:1006680014031946134801F03DFE4FF410437B6113
:100678000023BB610023FB6107F1140319460E48F0
:1006880001F030FE4FF400537B610123BB6100236E
:10069800FB6100233B6207F114031946064801F089
:1006A80021FE00BF2837BD4680BD00BF003802408C
:1006B80000080240000002400004024080B582B0F9
:1006C80000AF78607B680E4A934214D10C4B1B7FB5
:1006D800022B10D10A4B1B689A6B094B1B685B6B8A
:1006E800D31A084A13600021054800F03BFA042198
:1006F800034800F0B3FB00BF0837BD4680BD00BF0C
:10070800280000207000002080B400AF72B600BF3F
:1007180000BFFDE780B400AF00BFFDE780B400AFC5
:1007280000BFFDE780B400AF00BFFDE780B400AFB5
:1007380000BFFDE780B400AF00BFFDE780B400AFA5
:1007480000BFBD465DF8047B704780B400AF00BFB2
:10075800BD465DF8047B704780B400AF00BFBD465E
:100768005DF8047B704780B500AF02F0EFF800BF7A
:1007780080BD000080B500AF024800F01DFC00BF3E
:1007880080BD00BF2800002080B483B000AF0023E4
:100798007B60104B5B6C0F4A43F4804353640D4BF2
:1007A8005B6C03F480437B607B6800233B60094BF0
:1007B8001B6C084A43F080531364064B1B6C03F010
:1007C80080533B603B6800BF0C37BD465DF8047B37
:1007D800704700BF0038024080B58AB000AF78602B
:1007E80007F1140300221A605A609A60DA601A61ED
:1007F8007B681B681D4A934233D100233B611C4B25
:100808001B6C1B4A43F004031364194B1B6C03F065
:1008180004033B613B690023FB60154B1B6B144AC7
:1008280043F002031363124B1B6B03F00203FB60DC
:10083800FB6840237B610223BB610023FB6100232B
:100848003B6202237B6207F114031946094801F051
:1008580049FD002200211E2001F0EFFF1E2002F0BA
:1008680008F800BF2837BD4680BD00BF000800401B
:10087800003802400004024080B582B000AF7860C2
:100888007B68002B01D1012341E07B6893F83D3060
:10089800DBB2002B06D17B68002283F83C20786805
:1008A800FFF79AFF7B68022283F83D207B681A686D
:1008B8007B6804331946104600F012FE7B6801225B
:1008C80083F846207B68012283F83E207B6801225A
:1008D80083F83F207B68012283F840207B6801224F
:1008E80083F841207B68012283F842207B6801223B
:1008F80083F843207B68012283F844207B68012227
:1009080083F845207B68012283F83D2000231846A0
:100918000837BD4680BD80B582B000AF78607B687F
:10092800002B01D1012341E07B6893F83D30DBB215
:10093800002B06D17B68002283F83C20786800F001
:1009480039F87B68022283F83D207B681A687B6847
:1009580004331946104600F0C3FD7B68012283F872
:1009680046207B68012283F83E207B68012283F8B9
:100978003F207B68012283F840207B68012283F8AE
:1009880041207B68012283F842207B68012283F89A
:1009980043207B68012283F844207B68012283F886
:1009A80045207B68012283F83D200023184608373C
:1009B800BD4680BD80B483B000AF786000BF0C37FF
:1009C800BD465DF8047B704780B584B000AF7860A1
:1009D80039603B68002B04D17B6893F83E30DBB26A
:1009E80013E03B68042B04D17B6893F83F30DBB2FB
:1009F8000BE03B68082B04D17B6893F84030DBB2EE
:100A080003E07B6893F84130DBB2FB733B68002B53
:100A180004D17B6893F84230DBB213E03B68042BC7
:100A280004D17B6893F84330DBB20BE03B68082BBA
:100A380004D17B6893F84430DBB203E07B6893F819
:100A48004530DBB2BB73FB7B012B02D1BB7B012B97
:100A580001D0012377E03B68002B04D17B68022298
:100A680083F83E2013E03B68042B04D17B68022204
:100A780083F83F200BE03B68082B04D17B680222F7
:100A880083F8402003E07B68022283F841203B681A
:100A9800002B04D17B68022283F8422013E03B68D4
:100AA800042B04D17B68022283F843200BE03B68C7
:100AB800082B04D17B68022283F8442003E07B687A
:100AC800022283F845207B681B6801223968184692
:100AD80000F03EFF7B681B681D4A934218D07B6874
:100AE8001B68B3F1804F13D07B681B68194A934287
:100AF8000ED07B681B68184A934209D07B681B6834
:100B0800164A934204D07B681B68154A934211D158
:100B18007B681B689B6803F00703BB60BB68062BF8
:100B280010D07B681B681A687B681B6842F001025A
:100B38001A6007E07B681B681A687B681B6842F0CC
:100B480001021A60002318461037BD4680BD00BF59
:100B5800000001400004004000080040000C004074
:100B68000040014080B582B000AF786039607B6892
:100B78001B6800223968184600F0EAFE7B681B688B
:100B88001A6A41F211131340002B0FD17B681B68BE
:100B98001A6A40F244431340002B07D17B681B6854
:100BA8001A687B681B6822F001021A603B68002BF8
:100BB80004D17B68012283F83E2013E03B68042BB4
:100BC80004D17B68012283F83F200BE03B68082BA7
:100BD80004D17B68012283F8402003E07B6801226E
:100BE80083F841203B68002B04D17B68012283F8FD
:100BF800422013E03B68042B04D17B68012283F870
:100C080043200BE03B68082B04D17B68012283F862
:100C1800442003E07B68012283F84520002318461E
:100C28000837BD4680BD000080B584B000AF78604D
:100C380039600023FB733B68002B04D17B6893F871
:100C48003E30DBB213E03B68042B04D17B6893F899
:100C58003F30DBB20BE03B68082B04D17B6893F88C
:100C68004030DBB203E07B6893F84130DBB2BB7302
:100C78003B68002B04D17B6893F84230DBB213E069
:100C88003B68042B04D17B6893F84330DBB20BE05C
:100C98003B68082B04D17B6893F84430DBB203E04F
:100CA8007B6893F84530DBB27B73BB7B012B02D1A9
:100CB8007B7B012B01D00123C2E03B68002B04D1D0
:100CC8007B68022283F83E2013E03B68042B04D1A2
:100CD8007B68022283F83F200BE03B68082B04D195
:100CE8007B68022283F8402003E07B68022283F8B5
:100CF80041203B68002B04D17B68022283F8422004
:100D080013E03B68042B04D17B68022283F843205C
:100D18000BE03B68082B04D17B68022283F844204F
:100D280003E07B68022283F845203B680C2B41D8FE
:100D380001A252F823F000BF750D0008BD0D000890
:100D4800BD0D0008BD0D0008870D0008BD0D000889
:100D5800BD0D0008BD0D0008990D0008BD0D000867
:100D6800BD0D0008BD0D0008AB0D00087B681B68B1
:100D7800DA687B681B6842F00202DA601DE07B6873
:100D88001B68DA687B681B6842F00402DA6014E0CA
:100D98007B681B68DA687B681B6842F00802DA60C7
:100DA8000BE07B681B68DA687B681B6842F01002FE
:100DB800DA6002E00123FB7300BFFB7B002B3ED10E
:100DC8007B681B6801223968184600F0C1FD7B6802
:100DD8001B681D4A934218D07B681B68B3F1804F8B
:100DE80013D07B681B68194A93420ED07B681B6836
:100DF800174A934209D07B681B68164A934204D06D
:100E08007B681B68144A934211D17B681B689B68F6
:100E180003F00703BB60BB68062B10D07B681B6818
:100E28001A687B681B6842F001021A6007E07B6859
:100E38001B681A687B681B6842F001021A60FB7B1A
:100E480018461037BD4680BD000001400004004030
:100E580000080040000C00400040014080B584B00C
:100E680000AF786039600023FB733B680C2B41D8D6
:100E780001A252F823F000BFB50E0008FD0E0008CD
:100E8800FD0E0008FD0E0008C70E0008FD0E000844
:100E9800FD0E0008FD0E0008D90E0008FD0E000822
:100EA800FD0E0008FD0E0008EB0E00087B681B68AD
:100EB800DA687B681B6822F00202DA601DE07B6852
:100EC8001B68DA687B681B6822F00402DA6014E0A9
:100ED8007B681B68DA687B681B6822F00802DA60A6
:100EE8000BE07B681B68DA687B681B6822F01002DD
:100EF800DA6002E00123FB7300BFFB7B002B56D1B5
:100F08007B681B6800223968184600F021FD7B6861
:100F18001B681A6A41F211131340002B0FD17B682A
:100F28001B681A6A40F244431340002B07D17B68C0
:100F38001B681A687B681B6822F001021A603B680C
:100F4800002B04D17B68012283F83E2013E03B6824
:100F5800042B04D17B68012283F83F200BE03B6817
:100F6800082B04D17B68012283F8402003E07B68CA
:100F7800012283F841203B68002B04D17B680122C1
:100F880083F8422013E03B68042B04D17B680122DC
:100F980083F843200BE03B68082B04D17B680122CF
:100FA80083F8442003E07B68012283F84520FB7B1B
:100FB80018461037BD4680BD80B582B000AF786056
:100FC8007B681B681B6903F00203022B22D17B6834
:100FD8001B68DB6803F00203022B1BD17B681B68CC
:100FE8006FF002021A617B6801221A777B681B681E
:100FF8009B6903F00303002B03D07868FFF75EFBBF
:1010080005E0786800F04DFA786800F054FA7B68DB
:1010180000221A777B681B681B6903F00403042B02
:1010280022D17B681B68DB6803F00403042B1BD107
:101038007B681B686FF004021A617B6802221A77CA
:101048007B681B689B6903F44073002B03D07868A6
:10105800FFF734FB05E0786800F023FA786800F0C1
:101068002AFA7B6800221A777B681B681B6903F0E1
:101078000803082B22D17B681B68DB6803F0080390
:10108800082B1BD17B681B686FF008021A617B680C
:1010980004221A777B681B68DB6903F00303002BC3
:1010A80003D07868FFF70AFB05E0786800F0F9F9E3
:1010B800786800F000FA7B6800221A777B681B6862
:1010C8001B6903F01003102B22D17B681B68DB68B7
:1010D80003F01003102B1BD17B681B686FF0100204
:1010E8001A617B6808221A777B681B68DB6903F43E
:1010F8004073002B03D07868FFF7E0FA05E07868C2
:1011080000F0CFF9786800F0D6F97B6800221A77EA
:101118007B681B681B6903F00103012B0ED17B68F8
:101128001B68DB6803F00103012B07D17B681B6890
:101138006FF001021A61786800F0A9F97B681B68F2
:101148001B6903F08003802B0ED17B681B68DB686A
:1011580003F08003802B07D17B681B686FF0800247
:101168001A61786800F092FC7B681B681B6903F0C1
:101178004003402B0ED17B681B68DB6803F04003FB
:10118800402B07D17B681B686FF040021A617868B2
:1011980000F09BF97B681B681B6903F02003202B78
:1011A8000ED17B681B68DB6803F02003202B07D176
:1011B8007B681B686FF020021A61786800F05CFC9D
:1011C80000BF0837BD4680BD80B586B000AFF86067
:1011D800B9607A600023FB75FB6893F83C30012BFB
:1011E80001D1022388E0FB68012283F83C207B6858
:1011F800002B1BD1FB681868BB681968BB685A6864
:10120800BB68DB6800F0ECF9FB681B689A69FB684F
:101218001B6822F00C029A61FB681B689969BB681D
:101228009A68FB681B680A439A6160E07B68042B34
:101238001CD1FB681868BB681968BB685A68BB682A
:10124800DB6800F064FAFB681B689A69FB681B6836
:1012580022F440629A61FB681B689969BB689B68C5
:101268001A02FB681B680A439A6140E07B68082BF6
:101278001BD1FB681868BB681968BB685A68BB68EB
:10128800DB6800F0B1FAFB681B68DA69FB681B6869
:1012980022F00C02DA61FB681B68D969BB689A689E
:1012A800FB681B680A43DA6121E07B680C2B1CD1C0
:1012B800FB681868BB681968BB685A68BB68DB6854
:1012C80000F0CEFAFB681B68DA69FB681B6822F439
:1012D8004062DA61FB681B68D969BB689B681A02BF
:1012E800FB681B680A43DA6101E00123FB75FB68B0
:1012F800002283F83C20FB7D18461837BD4680BD88
:1013080080B584B000AF786039600023FB737B68D8
:1013180093F83C30012B01D10223B4E07B68012211
:1013280083F83C207B68022283F83D207B681B6899
:101338009B68BB60BB6823F07703BB60BB6823F482
:101348007F43BB607B681B68BA689A603B681B6810
:10135800B3F5005F3ED0B3F5005F00F28780B3F5C8
:10136800805F00F08680B3F5805F7FD8702B1AD03D
:10137800702B7BD8602B50D0602B77D8502B3CD06B
:10138800502B73D8402B58D0402B6FD8302B64D0BB
:10139800302B6BD8202B60D0202B67D8002B5CD04B
:1013A800102B5AD062E07B6818683B6899683B68E4
:1013B8005A683B68DB6800F0ABFA7B681B689B687F
:1013C800BB60BB6843F07703BB607B681B68BA6887
:1013D8009A604FE07B6818683B6899683B685A6870
:1013E8003B68DB6800F094FA7B681B689A687B6846
:1013F8001B6842F480429A603CE07B6818683B684E
:1014080059683B68DB681A4600F052F97B681B682C
:101418005021184600F061FA2CE07B6818683B6898
:1014280059683B68DB681A4600F0AEF97B681B68B0
:101438006021184600F051FA1CE07B6818683B6888
:1014480059683B68DB681A4600F032F97B681B680C
:101458004021184600F041FA0CE07B681A683B68A6
:101468001B681946104600F038FA03E00123FB73A5
:1014780000E000BF7B68012283F83D207B680022E2
:1014880083F83C20FB7B18461037BD4680BD80B4EE
:1014980083B000AF786000BF0C37BD465DF8047BB1
:1014A800704780B483B000AF786000BF0C37BD468A
:1014B8005DF8047B704780B483B000AF786000BFEC
:1014C8000C37BD465DF8047B704780B483B000AF2D
:1014D800786000BF0C37BD465DF8047B704700009C
:1014E80080B485B000AF786039607B681B68FB60AA
:1014F8007B68344A93420FD07B68B3F1804F0BD09E
:101508007B68314A934207D07B68304A934203D0C4
:101518007B682F4A934208D1FB6823F07003FB6075
:101528003B685B68FA681343FB607B68254A934213
:101538001BD07B68B3F1804F17D07B68224A934257
:1015480013D07B68214A93420FD07B68204A93428C
:101558000BD07B681F4A934207D07B681E4A934290
:1015680003D07B681D4A934208D1FB6823F440737B
:10157800FB603B68DB68FA681343FB60FB6823F099
:1015880080023B685B691343FB607B68FA681A60FA
:101598003B689A687B68DA623B681A687B689A627B
:1015A8007B68084A934203D13B681A697B681A63CF
:1015B8007B6801225A6100BF1437BD465DF8047B81
:1015C800704700BF000001400004004000080040D0
:1015D800000C004000400140004401400048014028
:1015E80080B487B000AFF860B9607A603B60FB6890
:1015F8001B6A23F00102FB681A62FB689B697B6126
:10160800FB681B6A3B61FB68244A934213D0FB6862
:10161800B3F1804F0FD0FB68214A93420BD0FB688F
:10162800204A934207D0FB681F4A934203D0FB68C5
:101638001E4A934201D1012300E00023002B08D069
:101648007B6923F003037B617A697B6813437B61C1
:1016580003E07B6943F001037B617B6923F0F003BE
:101668007B613B681B01DBB27A6913437B613B6991
:1016780023F00A033B61BB6803F00A033A6913438A
:101688003B61FB687A699A61FB683A691A6200BF34
:101698001C37BD465DF8047B704700BF0000014061
:1016A8000004004000080040000C004000400140D9
:1016B80080B487B000AFF860B9607A60FB681B6AD5
:1016C8007B61FB681B6A23F00102FB681A62FB68F6
:1016D8009B693B613B6923F0F0033B617B681B011D
:1016E8003A6913433B617B6923F00A037B617A699A
:1016F800BB6813437B61FB683A699A61FB687A6946
:101708001A6200BF1C37BD465DF8047B704780B481
:1017180087B000AFF860B9607A603B60FB681B6A0D
:1017280023F01002FB681A62FB689B697B61FB6807
:101738001B6A3B617B6923F440737B617B681B02F6
:101748007A6913437B617B6923F470437B613B684F
:101758001B039BB27A6913437B613B6923F0A003A7
:101768003B61BB681B0103F0A0033A6913433B616B
:10177800FB687A699A61FB683A691A6200BF1C378C
:10178800BD465DF8047B704780B487B000AFF86051
:10179800B9607A60FB681B6A23F01002FB681A6262
:1017A800FB689B697B61FB681B6A3B617B6923F46F
:1017B80070437B617B681B037A6913437B613B69D8
:1017C80023F0A0033B61BB681B013A6913433B61EB
:1017D800FB687A699A61FB683A691A6200BF1C372C
:1017E800BD465DF8047B704780B487B000AFF860F1
:1017F800B9607A603B60FB681B6A23F48072FB68FF
:101808001A62FB68DB697B61FB681B6A3B617B6969
:1018180023F003037B617A697B6813437B617B69EF
:1018280023F0F0037B613B681B01DBB27A69134349
:101838007B613B6923F420633B61BB681B0203F4B3
:1018480020633A6913433B61FB687A69DA61FB6894
:101858003A691A6200BF1C37BD465DF8047B7047C1
:1018680080B487B000AFF860B9607A603B60FB680D
:101878001B6A23F48052FB681A62FB68DB697B6190
:10188800FB681B6A3B617B6923F440737B617B685F
:101898001B027A6913437B617B6923F470437B6184
:1018A8003B681B039BB27A6913437B613B6923F452
:1018B80020433B61BB681B0303F420433A6913438D
:1018C8003B61FB687A69DA61FB683A691A6200BFB2
:1018D8001C37BD465DF8047B704780B485B000AF07
:1018E800786039607B689B68FB60FB6823F0700355
:1018F800FB603A68FB68134343F00703FB607B68AF
:10190800FA689A6000BF1437BD465DF8047B7047DB
:1019180080B487B000AFF860B9607A603B60FB685C
:101928009B687B617B6923F47F437B613B681A0278
:101938007B681A43BB6813437A6913437B61FB686E
:101948007A699A6000BF1C37BD465DF8047B704712
:1019580080B487B000AFF860B9607A60BB6803F004
:101968001F03012202FA03F37B61FB681A6A7B6991
:10197800DB431A40FB681A62FB681A6ABB6803F00B
:101988001F03796801FA03F31A43FB681A6200BF60
:101998001C37BD465DF8047B7047000080B485B0F5
:1019A80000AF786039607B6893F83C30012B01D137
:1019B800022350E07B68012283F83C207B680222E6
:1019C80083F83D207B681B685B68FB607B681B684D
:1019D8009B68BB60FB6823F07003FB603B681B6877
:1019E800FA681343FB607B681B68FA685A607B6877
:1019F8001B681C4A934218D07B681B68B3F1804F60
:101A080013D07B681B68184A93420ED07B681B680A
:101A1800164A934209D07B681B68154A934204D042
:101A28007B681B68134A93420CD1BB6823F0800380
:101A3800BB603B685B68BA681343BB607B681B6824
:101A4800BA689A607B68012283F83D207B6800228F
:101A580083F83C20002318461437BD465DF8047B04
:101A6800704700BF0000014000040040000800402B
:101A7800000C00400040014080B483B000AF7860A3
:101A880000BF0C37BD465DF8047B704780B483B057
:101A980000AF786000BF0C37BD465DF8047B704727
:101AA80080B586B000AF78607B68002B01D1012338
:101AB80067E27B681B6803F00103002B75D0884B35
:101AC8009B6803F00C03042B0CD0854B9B6803F038
:101AD8000C03082B12D1824B5B6803F48003B3F527
:101AE800800F0BD17E4B1B6803F40033002B5BD0B7
:101AF8007B685B68002B57D1012342E27B685B68F7
:101B0800B3F5803F06D1764B1B68754A43F48033A2
:101B180013601DE07B685B68B3F5A02F0CD1704B98
:101B28001B686F4A43F4802313606D4B1B686C4A33
:101B380043F4803313600BE0694B1B68684A23F455
:101B480080331360664B1B68654A23F48023136057
:101B58007B685B68002B13D000F00CFF386108E04D
:101B680000F008FF02463B69D31A642B01D903230E
:101B780007E25B4B1B6803F40033002BF0D014E042
:101B880000F0F8FE386108E000F0F4FE02463B6918
:101B9800D31A642B01D90323F3E1514B1B6803F4D7
:101BA8000033002BF0D100E000BF7B681B6803F016
:101BB8000203002B63D04A4B9B6803F00C03002BF5
:101BC8000BD0474B9B6803F00C03082B1CD1444BEC
:101BD8005B6803F48003002B16D1414B1B6803F0AC
:101BE8000203002B05D07B68DB68012B01D00123A1
:101BF800C7E13B4B1B6823F0F8027B681B69DB00DD
:101C0800374913430B603AE07B68DB68002B20D030
:101C1800344B01221A6000F0ADFE386108E000F094
:101C2800A9FE02463B69D31A022B01D90323A8E176
:101C38002B4B1B6803F00203002BF0D0284B1B68CA
:101C480023F0F8027B681B69DB00254913430B600E
:101C580015E0244B00221A6000F08CFE386108E081
:101C680000F088FE02463B69D31A022B01D90323F0
:101C780087E11B4B1B6803F00203002BF0D17B6844
:101C88001B6803F00803002B36D07B685B69002BC8
:101C980016D0154B01221A6000F06CFE386108E07E
:101CA80000F068FE02463B69D31A022B01D90323D0
:101CB80067E10B4B5B6F03F00203002BF0D01BE0D6
:101CC800094B00221A6000F055FE38610EE000F062
:101CD80051FE02463B69D31A022B07D9032350E170
:101CE8000038024000004742800E4742884B5B6F35
:101CF80003F00203002BEAD17B681B6803F004039E
:101D0800002B00F097800023FB75814B1B6C03F0C0
:101D18008053002B0FD10023BB607D4B1B6C7C4A8A
:101D280043F0805313647A4B1B6C03F08053BB6001
:101D3800BB680123FB75774B1B6803F48073002B8A
:101D480018D1744B1B68734A43F48073136000F016
:101D580011FE386108E000F00DFE02463B69D31A17
:101D6800022B01D903230CE16A4B1B6803F480732F
:101D7800002BF0D07B689B68012B06D1644B1B6F4E
:101D8800634A43F0010313671CE07B689B68052BDB
:101D98000CD15F4B1B6F5E4A43F0040313675C4B27
:101DA8001B6F5B4A43F0010313670BE0584B1B6F33
:101DB800574A23F001031367554B1B6F544A23F00E
:101DC800040313677B689B68002B15D000F0D2FDD5
:101DD80038610AE000F0CEFD02463B69D31A41F2B1
:101DE8008832934201D90323CBE0494B1B6F03F0A0
:101DF8000203002BEED014E000F0BCFD38610AE0CD
:101E080000F0B8FD02463B69D31A41F2883293428A
:101E180001D90323B5E03E4B1B6F03F00203002BEF
:101E2800EED1FB7D012B05D1394B1B6C384A23F0D1
:101E3800805313647B689B69002B00F0A180344BAE
:101E48009B6803F00C03082B5CD07B689B69022B12
:101E580041D1314B00221A6000F08CFD386108E056
:101E680000F088FD02463B69D31A022B01D90323EF
:101E780087E0274B1B6803F00073002BF0D17B68C9
:101E8800DA697B681B6A1A437B685B6A9B011A43A1
:101E98007B689B6A5B08013B1B041A437B68DB6A0F
:101EA8001B061B4913434B601B4B01221A6000F0B1
:101EB80061FD386108E000F05DFD02463B69D31A18
:101EC800022B01D903235CE0114B1B6803F000735C
:101ED800002BF0D054E0104B00221A6000F04AFDAD
:101EE800386108E000F046FD02463B69D31A022B30
:101EF80001D9032345E0064B1B6803F00073002B50
:101F0800F0D13DE07B689B69012B07D1012338E0C4
:101F18000038024000700040600047421B4B5B687D
:101F2800FB607B689B69012B28D0FB6803F4800267
:101F38007B68DB699A4221D1FB6803F03F027B682A
:101F48001B6A9A421AD1FA6847F6C07313407A6836
:101F5800526A9201934211D1FB6803F440327B68C4
:101F68009B6A5B08013B1B049A4207D1FB6803F09C
:101F780070627B68DB6A1B069A4201D0012300E08D
:101F8800002318461837BD4680BD00BF0038024000
:101F980080B584B000AF786039607B68002B01D1D0
:101FA8000123CCE0684B1B6803F007033A689A42A8
:101FB8000CD9654B3A68D2B21A70634B1B6803F0B0
:101FC80007033A689A4201D00123B8E07B681B688E
:101FD80003F00203002B20D07B681B6803F0040386
:101FE800002B05D0594B9B68584A43F4E053936043
:101FF8007B681B6803F00803002B05D0534B9B68D4
:10200800524A43F460439360504B9B6823F0F002BC
:102018007B689B684D4913438B607B681B6803F0A2
:102028000103002B44D07B685B68012B07D1474B29
:102038001B6803F40033002B19D101237FE07B6870
:102048005B68022B03D07B685B68032B07D13F4B8F
:102058001B6803F00073002B09D101236FE03B4B91
:102068001B6803F00203002B01D1012367E0374B03
:102078009B6823F003027B685B68344913438B60D9
:1020880000F078FCF8600AE000F074FC0246FB6897
:10209800D31A41F28832934201D903234FE02B4BE4
:1020A8009B6803F00C027B685B689B009A42EBD14B
:1020B800254B1B6803F007033A689A420CD2224B5F
:1020C8003A68D2B21A70204B1B6803F007033A68CB
:1020D8009A4201D0012332E07B681B6803F00403B5
:1020E800002B08D0194B9B6823F4E0527B68DB680F
:1020F800164913438B607B681B6803F00803002BA9
:1021080009D0124B9B6823F460427B681B69DB0093
:102118000E4913438B6000F021F802460B4B9B6875
:102128001B0903F00F030A49CB5C22FA03F3094A9F
:102138001360094B1B68184600F0D8FB00231846AB
:102148001037BD4680BD00BF003C02400038024049
:10215800BC2D000808000020000000202DE9B04F29
:1021680090B000AF00237B630023FB6300233B6335
:102178000023BB63584B9B6803F00C03082B0DD05E
:10218800082B00F2A080002B02D0042B03D09AE089
:10219800524BBB639AE0524BBB6397E04E4B5B6874
:1021A80003F03F037B634C4B5B6803F48003002B15
:1021B80027D0494B5B689B0900223B627A623B6AE5
:1021C800C3F308000021464B03FB01F2002300FB88
:1021D80003F31344424AA0FB0221F962BA62FA6A85
:1021E8001344FB627B6B0022BB61FA61D7E90623CB
:1021F800D7E90A01FDF7CCFF02460B461346FB63FD
:1022080053E0354B5B689B0900223B617A613B696F
:10221800C3F3080A4FF0000B52465B464FF000002C
:102228004FF00001590141EAD261500102460B46C4
:10223800B2EB0A0863EB0B094FF000024FF0000302
:102248004FEA891343EA98634FEA8812B2EB08040D
:1022580063EB09054FF000024FF00003EB0043EA7F
:102268005473E20014461D4614EB0A033B6045EB29
:102278000B037B604FF000024FF00003D7E90045E5
:1022880029468B02214643EA915321468A02104689
:1022980019467B6B0022BB60FA60D7E90223FDF781
:1022A80077FF02460B461346FB630B4B5B681B0C20
:1022B80003F0030301335B003B63FA6B3B6BB2FB38
:1022C800F3F3BB6302E0054BBB6300BFBB6B18466F
:1022D8004037BD46BDE8B08F003802400024F40006
:1022E80040787D0180B489B000AF78603960002300
:1022F8007B6100233B610023BB610023FB6159E143
:102308000122FB6902FA03F37B613B681B687A6967
:1023180013403B613A697B699A4240F048813B68C7
:102328005B6803F00303012B05D03B685B6803F08F
:102338000303022B30D17B689B68BB61FB695B00A0
:10234800032202FA03F3DB43BA691340BB613B681B
:10235800DA68FB695B0002FA03F3BA691343BB61ED
:102368007B68BA699A607B685B68BB610122FB691C
:1023780002FA03F3DB43BA691340BB613B685B684D
:102388001B0903F00102FB6902FA03F3BA6913435C
:10239800BB617B68BA695A603B685B6803F00303FA
:1023A800032B17D07B68DB68BB61FB695B000322EA
:1023B80002FA03F3DB43BA691340BB613B689A68CE
:1023C800FB695B0002FA03F3BA691343BB617B68DC
:1023D800BA69DA603B685B6803F00303022B23D118
:1023E800FB69DA087B68083253F82230BB61FB6965
:1023F80003F007039B000F2202FA03F3DB43BA69D9
:102408001340BB613B681A69FB6903F007039B0033
:1024180002FA03F3BA691343BB61FB69DA087B6804
:102428000832B96943F822107B681B68BB61FB69F5
:102438005B00032202FA03F3DB43BA691340BB6172
:102448003B685B6803F00302FB695B0002FA03F375
:10245800BA691343BB617B68BA691A603B685B68F9
:1024680003F44033002B00F0A2800023FB60574B9D
:102478005B6C564A43F480435364544B5B6C03F4DF
:102488008043FB60FB68524AFB699B08023352F8A1
:102498002330BB61FB6903F003039B000F2202FAA0
:1024A80003F3DB43BA691340BB617B68494A934233
:1024B80019D07B68484A934213D07B68474A9342B5
:1024C8000DD07B68464A934207D07B68454A9342C1
:1024D80001D1042308E0072306E0032304E00223D4
:1024E80002E0012300E00023FA6902F003029200EF
:1024F8009340BA691343BB613549FB699B080233B2
:10250800BA6941F82320384B9B68BB613B69DB43C0
:10251800BA691340BB613B685B6803F48013002B06
:1025280003D0BA693B691343BB612F4ABB69936007
:102538002D4BDB68BB613B69DB43BA691340BB6168
:102548003B685B6803F40013002B03D0BA693B694E
:102558001343BB61244ABB69D360234B5B68BB61EF
:102568003B69DB43BA691340BB613B685B6803F4B2
:102578000033002B03D0BA693B691343BB611A4A85
:10258800BB695360184B1B68BB613B69DB43BA6985
:102598001340BB613B685B6803F48033002B03D0B6
:1025A800BA693B691343BB610F4ABB691360FB6996
:1025B8000133FB61FB690F2B7FF6A2AE00BF00BFA2
:1025C8002437BD465DF8047B704700BF00380240E1
:1025D80000380140000002400004024000080240A8
:1025E800000C024000100240003C014080B485B05D
:1025F80000AF78600B467B807B681A697B88134044
:10260800002B02D00123FB7301E00023FB73FB7B4B
:1026180018461437BD465DF8047B704780B483B014
:1026280000AF78600B467B8013467B707B78002B6D
:1026380003D07A887B689A6103E07B881A047B68F8
:102648009A6100BF0C37BD465DF8047B704780B4C3
:1026580085B000AF78600B467B807B685B69FB6068
:102668007A88FB6813401A04FB68D9437B880B40BF
:102678001A437B689A6100BF1437BD465DF8047B36
:102688007047000080B485B000AF78607B6803F0C5
:102698000703FB600C4BDB68BB60BA684FF6FF03AF
:1026A8001340BB60FB681A02BB68134343F0BF6367
:1026B80043F40033BB60044ABB68D36000BF1437DF
:1026C800BD465DF8047B704700ED00E080B400AFC4
:1026D800044BDB681B0A03F007031846BD465DF888
:1026E800047B704700ED00E080B483B000AF034680
:1026F800FB7197F90730002B0BDBFB7903F01F0206
:10270800074997F907305B09012000FA02F241F8FE
:10271800232000BF0C37BD465DF8047B704700BF1F
:1027280000E100E080B483B000AF03463960FB717C
:1027380097F90730002B0ADB3B68DAB20C4997F9A6
:1027480007301201D2B20B4483F800230AE03B6839
:10275800DAB20849FB7903F00F03043B1201D2B245
:102768000B441A7600BF0C37BD465DF8047B7047F2
:1027780000E100E000ED00E080B489B000AFF8604F
:10278800B9607A60FB6803F00703FB61FB69C3F17A
:102798000703042B28BF0423BB61FB690433062B02
:1027A80002D9FB69033B00E000237B614FF0FF3255
:1027B800BB6902FA03F3DA43BB681A407B699A40A3
:1027C8004FF0FF317B6901FA03F3D9437B680B4073
:1027D800134318462437BD465DF8047B7047000054
:1027E80080B582B000AF78607B68013BB3F1807F31
:1027F80001D301230FE00A4A7B68013B53600F2194
:102808004FF0FF30FFF78EFF054B00229A60044B14
:1028180007221A60002318460837BD4680BD00BF4E
:1028280010E000E080B582B000AF78607868FFF70C
:1028380029FF00BF0837BD4680BD80B586B000AF10
:102848000346B9607A60FB7300237B61FFF73EFFA4
:1028580078617A68B9687869FFF78EFF024697F958
:102868000F3011461846FFF75DFF00BF1837BD4609
:1028780080BD80B582B000AF0346FB7197F9073081
:102888001846FFF731FF00BF0837BD4680BD80B549
:1028980082B000AF78607868FFF7A2FF0346184659
:1028A8000837BD4680BD000080B500AF0E4B1B68E1
:1028B8000D4A43F4007313600B4B1B680A4A43F438
:1028C80080631360084B1B68074A43F480731360E6
:1028D8000320FFF7A7FF0F2000F008F8FDF754FFCB
:1028E8000023184680BD00BF003C024080B582B07E
:1028F80000AF7860124B1A68124B1B7819464FF4D8
:102908007A73B3FBF1F3B2FBF3F31846FFF7BFFF9B
:102918000346002B01D001230EE07B680F2B0AD859
:10292800002279684FF0FF30FFF787FF064A7B687F
:102938001360002300E0012318460837BD4680BD18
:1029480008000020040000200000002080B400AF30
:10295800064B1B781A46064B1B681344044A13603F
:1029680000BFBD465DF8047B704700BF040000202F
:102978007400002080B400AF034B1B681846BD46A6
:102988005DF8047B704700BF7400002080B584B0F8
:1029980000AF7860FFF7EEFFB8607B68FB60FB680C
:1029A800B3F1FF3F05D00A4B1B781A46FB68134466
:1029B800FB6000BFFFF7DEFF0246BB68D31AFA6868
:1029C8009A42F7D800BF00BF1037BD4680BD00BF90
:1029D8000400002080B400AF064BD3F88830054AC5
:1029E80043F47003C2F8883000BFBD465DF8047B2D
:1029F800704700BF00ED00E0DFF834D00D480E4905
:102A08000E4A002302E0D458C4500433C4188C4240
:102A1800F9D30B4A0B4C002301E013600432A242A5
:102A2800FBD3FFF7D7FF00F019F8FDF711FC70474B
:102A380000000220000000200C000020DC2D00080F
:102A48000C00002078000020FEE702440346934271
:102A580000D1704703F8011BF9E7000070B50D4B72
:102A68000D4D5B1B9C100026A64209D100F096F97B
:102A78000A4D0B4B5B1B9C100026A64205D170BD6E
:102A880055F8043B98470136EEE755F8043B98475C
:102A98000136F2E7D42D0008D42D0008D42D000803
:102AA800D82D00082DE9F047089D0F4604468C46AE
:102AB800002B48D18A42164661D9B2FA82F34BB14B
:102AC800C3F1200201FA03FC20FA02F29E4042EA16
:102AD8000C0C9C404FEA164EB7B2BCFBFEF1220C20
:102AE8000EFB11CC42EA0C4201FB07F0904209D9D7
:102AF800B21801F1FF3C80F0EE80904240F2EB808A
:102B080002393244121AA4B2B2FBFEF00EFB1022B4
:102B180044EA024400FB07F7A74209D9341900F137
:102B2800FF3280F0DA80A74240F2D780344402387E
:102B380040EA0140E41B00211DB1DC400023C5E947
:102B48000043BDE8F0878B4206D90DB1C5E9000105
:102B580000210846BDE8F087B3FA83F1002948D17F
:102B6800BB4202D3824200F20781841A67EB030258
:102B780001209446002DE4D0C5E9004CE1E7002A85
:102B880000F09280B2FA82F3002B40F0A8808A1AF3
:102B98004FEA164E1FFA86FC0121200CB2FBFEF705
:102BA8000EFB172240EA02420CFB07F0904207D9BD
:102BB800B21807F1FF3802D2904200F2E28047468D
:102BC800121AA4B2B2FBFEF00EFB102244EA024431
:102BD8000CFB00FCA44507D9341900F1FF3202D2DE
:102BE800A44500F2CB801046A4EB0C0440EA074051
:102BF800A2E7C1F120068B4022FA06FC4CEA030C3E
:102C080007FA01F420FA06F3F7404FEA1C49234378
:102C180000FA01F81FFA8CFEB7FBF9F01C0C09FB4F
:102C2800107744EA074400FB0EF7A74202FA01F2C4
:102C38000AD91CEB040400F1FF3A80F09B80A742FC
:102C480040F2988002386444E41B9FB2B4FBF9F365
:102C580009FB134447EA044403FB0EFEA64509D9C1
:102C68001CEB040403F1FF3780F08280A6457FD96E
:102C7800023B644443EA0040A4EB0E04A0FB02E7D5
:102C8800BC427346B94663D360D05DB1B8EB03026A
:102C980064EB090404FA06F622FA01F31E43CC4059
:102CA800C5E9006400214CE76208480842EAC1719E
:102CB8000B0C43EA00438AB242EA0342B3FBF6F143
:102CC800E407B4463746B6461F23B0FBF6F0D21BDE
:102CD80041EA004161E7614614E7104628E7C3F17D
:102CE800200120FA01F29E4027FA01F19F403A4361
:102CF8004FEA164E1FFA86FCB1FBFEF70EFB1710C3
:102D0800110C41EA004107FB0CF8884504FA03F46A
:102D18003AD9711807F1FF3001D288451FD8A1EBC5
:102D28000801B1FBFEF808FB0CF70EFB181192B274
:102D380042EA0142BA422FD2B21808F1FF31C6D294
:102D4800BA42C4D2A8F102013244C0E7F0459CD28D
:102D5800BEEB020367EB0C070138B94695E7A6EB13
:102D680008084144B81EB1FBFEF808FB0CF7DCE785
:102D78003B467FE7504667E70846FBE6344402389F
:102D880032E7023F32441BE7A1EB08013846B1FBAA
:102D9800FEF808FB0CF7C8E7414698E7F8B500BF0E
:102DA800F8BC08BC9E467047F8B500BFF8BC08BC24
:042DB8009E4670477C
:102DBC0000000000000000000102030406070809DF
:082DCC00E0FCFF7F01000000A4
:042DD40035020008BC
:042DD8000D020008E0
:0C2DDC0010000000010000000024F400C2
:0400000508002A01C4
:00000001FF
